:100000000C942A000C9447000C9447000C94470071
:100010000C9447000C9447000C9447000C94470044
:100020000C9447000C9447000C9447000C94470034
:100030000C9447000C9447000C9447000C94470024
:100040000C9447000C9447000C9447000C94470014
:100050000C94470011241FBECFE5D8E0DEBFCDBF12
:1000600011E0A0E6B0E0E2E0F7E002C005900D92FA
:10007000A030B107D9F721E0A0E0B1E001C01D92A6
:10008000A130B207E1F70E948B010C947F030C941E
:100090000000DC011296ED91FC911397408121E064
:1000A00030E0C90116960C9002C0880F991F0A947F
:1000B000E2F7842B80830895DC01ED91FC91119788
:1000C00016963C91208181E090E001C0880F3A951E
:1000D000EAF7662311F0822B02C080958223808389
:1000E0000895DC011296ED91FC9113978081682BA5
:1000F00060830895DC01ED91FC918081962F9095AD
:1001000089234623482B408308959C0187B3806B45
:1001100087BBBE98C9018D7F019711F091E501C0A1
:1001200095E5225031092230310508F498609DB9D7
:100130001EB808958FB9779BFECF8FB10895482FD1
:1001400060EF8CE790E00E947A0061E08EE690E03C
:100150000E945C008DE08A95F1F7000060E08EE679
:1001600090E00E945C0087EC90E00197F1F700C0FE
:1001700000000895CF93C82F60E085E790E00E94CB
:100180005C008C2F0E949F008C2F8295807F0E94A4
:100190009F00C150C23030F48FE99FE00197F1F722
:1001A00000C00000CF91089581E00C94BA0085E76B
:1001B00090E00E9449008EE690E00E94490060EFC6
:1001C0008CE790E00E94710060E085E790E00E947B
:1001D0005C0060E08EE690E00E945C0040E060EF32
:1001E0008CE790E00E947A002FE788E391E02150AD
:1001F00080409040E1F700C0000080E30E949F0033
:100200008FE097E20197F1F700C0000080E30E94C1
:100210009F008FE891E00197F1F700C0000080E3B4
:100220000E949F008FE891E00197F1F700C0000065
:1002300080E20E949F008FE891E00197F1F700C0F3
:10024000000088E20E94BA0088E00E94BA000E9482
:10025000D40086E00E94BA008CE00C94BA008111B0
:10026000605C862F80680C94BA00CF93C82F61E041
:1002700085E790E00E945C008C2F0E949F008C2FED
:100280008295807FCF910C949F00FF920F931F93D4
:10029000CF93DF931F92CDB7DEB7F62E60E0798360
:1002A0000E942F010F2D7981172FF12CF8018191D8
:1002B0008F01882339F0F0E1FF1621F00E9435010B
:1002C000F394F4CF8FE08F1528F080E20E9435017F
:1002D000F394F8CF0F90DF91CF911F910F91FF9082
:1002E000089560E080E690E00E945C0080E690E087
:1002F0000E944900109200010895CF93C82F682FE3
:1003000080E690E00E945C00C0930001CF910895C8
:10031000809100010895CF93DF93CDB7DEB7669744
:100320000FB6F894DEBF0FBECDBF0E9471010E94D0
:10033000D70060E870E080E00E9445010E940D0354
:10034000BC0181E00E9445010E9461022FE78AE121
:1003500096E0215080409040E1F700C0000084E525
:10036000782E95E6692E2DE6522E30E7432E4AE38D
:10037000342E50E2D52E6BE2262E7AE0E72EF12CB9
:10038000E8EEAE2EE3E0BE2EF4E68F2E912C0E9416
:1003900088022A8B3B8B4C8B5D8B6E8B0A891B8969
:1003A0000E948801CC88C1100DC0811106C081E077
:1003B000083E23E012073CF405C081E0073B93E0D0
:1003C00019070CF480E00E947D0179826A825B82C9
:1003D0004C823D82DE8217FF07C08DE28F83882723
:1003E0009927801B910B02C02F82C801B7010E9480
:1003F00010039B01482F683E83E0780750F0CB0143
:10040000B5010E941003CB01B7010E941003805D6B
:1004100001C080E288872436310558F0C901B40153
:100420000E941003CB01B7010E94100390E3980FC4
:1004300001C090E299872A30310558F0C901B7010F
:100440000E941003CB01B7010E94100390E3980FA4
:1004500001C090E29A87C901B7010E941003805D34
:100460008B878EE28C87405D4D878FED8E8783E48E
:100470008F87D88A198ABE016F5F7F4F80E00E9404
:100480004501CC2019F06D897E8909C00E94880140
:10049000882319F06FE870E002C060EA70E081E044
:1004A0000E9445019FEF24E38CE091502040804062
:1004B000E1F700C000006BCF61E087E690E00C94AC
:1004C0005C0061E087E690E00E945C0087E690E0D7
:1004D0000E94490081E090E00E94850060E087E68C
:1004E00090E00E945C0081E80E949A0083E00E94F4
:1004F0009A000E945C0260E087E690E00E945C0047
:1005000080E80E949A0080E80E949A000C945C02A5
:10051000CF92DF92EF92FF921F93CF93DF9300D0A1
:1005200000D01F92CDB7DEB760E087E690E00E9472
:100530005C008FE00E949A0080E00E949A00182FD1
:100540000E945C0260E087E690E00E945C008CE024
:100550000E949A0080E00E949A00C82ED12CE12CC3
:10056000F12C7601DD24CC2480E00E949A00D82A68
:1005700080E00E949A00C82A0E945C02E7FE02C046
:10058000FF24FA94A701960185E055954795379584
:1005900027958A95D1F7AAE0B0E00E94430320E8AE
:1005A00030E040E050E00E94240341E0111101C01E
:1005B00040E010FD0DC011FD0EC0812F807C71F454
:1005C000812F887271F4147179F48BEE90E00EC073
:1005D0008CEA90E00BC088EB90E008C087EC90E0DC
:1005E00005C084ED90E002C080EE90E03A8329835C
:1005F0009D838C833A81582F6D8170E080E090E07C
:100600000F900F900F900F900F90DF91CF911F914F
:10061000FF90EF90DF90CF90089586EF90E00895DF
:10062000AA1BBB1B51E107C0AA1FBB1FA617B70718
:1006300010F0A61BB70B881F991F5A95A9F7809534
:100640009095BC01CD010895052E97FB1EF40094F2
:100650000E943B0357FD07D00E944E0307FC03D0C6
:100660004EF40C943B0350954095309521953F4FA7
:100670004F4F5F4F089590958095709561957F4F8E
:100680008F4F9F4F08950E947003A59F900DB49FB8
:10069000900DA49F800D911D11240895A1E21A2EA2
:1006A000AA1BBB1BFD010DC0AA1FBB1FEE1FFF1F16
:1006B000A217B307E407F50720F0A21BB30BE40B66
:1006C000F50B661F771F881F991F1A9469F76095AD
:1006D0007095809590959B01AC01BD01CF01089567
:1006E000A29FB001B39FC001A39F700D811D112473
:1006F000911DB29F700D811D1124911D0895F894D4
:02070000FFCF29
:1007020038003700360003380037003600043B005B
:100712003A003900013B003A003900003B003A0040
:10072200546865726D6F636F75706C65204B004F16
:1007320055545055543A204F4E203E3D31303000F2
:100742004F55545055543A204F4646004641554C59
:10075200543A204F50454E004641554C543A20568B
:100762004F4C54414745004641554C543A20524162
:100772004E4745004641554C543A204849474800A7
:100782004641554C543A204C4F570053656E736F97
:10079200723A204F4B004D41583331383536000004
:00000001FF
