:100000000C942A000C9447000C9447000C94470071
:100010000C9447000C9447000C9447000C94470044
:100020000C9447000C9447000C9447000C94470034
:100030000C9447000C9447000C9447000C94470024
:100040000C9447000C9447000C9447000C94470014
:100050000C94470011241FBECFE5D8E0DEBFCDBF12
:1000600011E0A0E6B0E0E8E5FBE002C005900D92EB
:10007000A831B107D9F721E0A8E1B1E001C01D9294
:10008000AF33B207E1F70E94DE030C94AA050C948B
:100090000000DC011296ED91FC911397408121E064
:1000A00030E0C90116960C9002C0880F991F0A947F
:1000B000E2F7842B80830895DC01ED91FC91119788
:1000C00016963C91208181E090E001C0880F3A951E
:1000D000EAF7662311F0822B02C080958223808389
:1000E0000895DC011296ED91FC911397408121E077
:1000F00030E016960C9002C0220F331F0A94E2F7EC
:100100002095242320830C945C00FC01A481B581FC
:100110004C9121E030E0C901068002C0880F991F90
:100120000A94E2F7942F982381E009F480E008957F
:10013000DC011296ED91FC9113978081682B60830E
:100140000895DC01ED91FC918081962F9095892393
:100150004623482B408308959C0187B3806B87BB5F
:10016000BE98C9018D7F019711F091E501C095E519
:10017000225031092230310508F498609DB91EB82B
:1001800008956115710511F480E008958FB98FEF1E
:100190009FEF779904C00097B9F30197FACF8FB119
:1001A000FB01808381E00895482F60EF80ED90E0AF
:1001B0000E94A10061E082EC90E00E945C008DE072
:1001C0008A95F1F7000060E082EC90E00E945C000C
:1001D00087EC90E00197F1F700C000000895CF93FD
:1001E000C82F60E089EC90E00E945C008C2F0E9498
:1001F000D4008C2F8295807F0E94D400C150C230E1
:1002000030F48FE99FE00197F1F700C00000CF9133
:10021000089581E00C94EF0089EC90E00E94490081
:1002200082EC90E00E94490060EF80ED90E00E9437
:10023000980060E089EC90E00E945C0060E082EC55
:1002400090E00E945C0040E060EF80ED90E00E9452
:10025000A1002FE788E391E0215080409040E1F732
:1002600000C0000080E30E94D4008FE097E2019775
:10027000F1F700C0000080E30E94D4008FE891E015
:100280000197F1F700C0000080E30E94D4008FE8DE
:1002900091E00197F1F700C0000080E20E94D400D5
:1002A0008FE891E00197F1F700C0000088E20E941A
:1002B000EF0088E00E94EF000E94090186E00E94A2
:1002C000EF008CE00C94EF008111605C862F806859
:1002D0000C94EF00CF93C82F61E089EC90E00E946E
:1002E0005C008C2F0E94D4008C2F8295807FCF9150
:1002F0000C94D400FF920F931F93CF93DF931F9220
:10030000CDB7DEB7F62E60E079830E9464010F2D31
:100310007981172FF12CF80181918F01882339F011
:10032000F0E1FF1621F00E946A01F394F4CF8FE010
:100330008F1528F080E20E946A01F394F8CF0F90A5
:10034000DF91CF911F910F91FF90089560E083E8B6
:1003500090E00E945C0083E890E00E9449001092C7
:1003600018010895CF93C82F682F83E890E00E946A
:100370005C00C0931801CF9108950F931F93CF9302
:10038000DF9310921E0109E111E0C9EDD0E0F80100
:1003900011928F0161E0899199910E947100F0E0C2
:1003A000C33EDF07A1F7DF91CF911F910F91089511
:1003B0008F929F92AF92BF92CF92DF92EF92FF9275
:1003C0000F931F93CF93DF9389EDC82E80E0D82E33
:1003D000C9E1D1E000E010E0912CAA24A394B12C53
:1003E000882483947501002E01C0EE0C0A94EAF76C
:1003F000F601819191916F010E948500882590916D
:100400001E01392F3E2121E009F420E0821302C0B1
:10041000188216C028812F5F233010F4288310C063
:100420001882882349F09E2990931E01F801EC520E
:10043000FF4F8081982A04C0E0949E2190931E0172
:100440000F5F1F4F21960530110561F6892DDF9151
:10045000CF911F910F91FF90EF90DF90CF90BF90C1
:10046000AF909F908F9008950F931F93CF93DF933A
:10047000CAE8D0E08E0161E0C8010E945C00095F1B
:100480001F4F80E0023C1807B1F7CE010E944900DF
:10049000279680E0C23CD807C1F781E090E00E9437
:1004A000AC0081E0DF91CF911F910F910895EF9201
:1004B000FF920F931F93CF93DF9300D0CDB7DEB79A
:1004C000883020F020E070E084E026C097E0899F2B
:1004D0008001112406571F4F60E0C8010E945C0094
:1004E000BE016E5F7F4F80E00E94C100882349F00B
:1004F000BE016F5F7F4F80E00E94C100E82EF12CAB
:1005000002C0E12CF12C61E0C8010E945C00EF28E0
:1005100029F420E070E080E190E026C08A8190E03C
:10052000982F88272981822B9C01287F3F7743E0E1
:10053000369527954A95E1F7AC015695479556951E
:100540004795AAE0B0E00E949B05DC01CB0172E078
:10055000B695A795979587957A95D1F7282F792FF6
:10056000842F817091E09827622F0F900F90DF9178
:10057000CF911F910F91FF90EF900895FC01892B6F
:1005800021F010821182138212820895CF93DF939B
:10059000FC01892B51F18081811127C06115710502
:1005A00029F0442319F0DB01139607C081E0808312
:1005B000118209C08F5F8417C1F09C91911106C010
:1005C00091E09083818382E090E00DC01496ED016C
:1005D0002797688179816217730764F391E09083AC
:1005E000818381E090E093838283DF91CF910895AE
:1005F0000F931F93CF9389010097D9F0611571056F
:10060000C1F04423B1F0FB01339630E0C081CC232C
:1006100089F03496BF0167507109DB016D917C91BF
:100620000617170734F03F5F3413F0CF0E94BE0265
:1006300001C0C0E08C2FCF911F910F9108950097BA
:1006400029F0FC01908181E0892702C080E090E0E0
:1006500081700895882321F0CB010E941F0302C0FE
:1006600080E090E081700895CF93DF93FC01DA0180
:10067000892B09F4A0C083E4808388E481836F5CC4
:1006800062838AE38383109729F013968C911397E2
:1006900081112DC08DE28483858386839EE29783BA
:1006A000808783E4818780E28287109719F0129611
:1006B0008C9101C080E280FD07C084FD08C082FFEC
:1006C00009C085EF90E008C083EE90E005C089EE98
:1006D00090E002C08FEE90E0DC01EF012B96CF019D
:1006E00040962D912993C817D907D9F763C08D91EA
:1006F0009C91119797FF08C08DE284838D919C9106
:1007000091958195910904C08BE284838D919C9190
:10071000CAE0D0E0BE010E9487059B01482F683ED9
:1007200083E0780760F0CB0168EE73E00E948705F4
:10073000CB01BE010E94870590E3980F01C090E2B3
:1007400095832436310568F0C90164E670E00E94A3
:100750008705CB016AE070E00E94870590E3980F5F
:1007600001C090E296832A30310568F0CAE0D0E0FB
:10077000C901BE010E948705CB01BE010E94870509
:1007800090E3980F01C090E29783C9016AE070E09E
:100790000E948705805D80878EE28187405D428769
:1007A0008FED838783E4848780E285878FE4868763
:1007B0008BE48787108ADF91CF910895CF93DF93E1
:1007C000CDB7DEB765970FB6F894DEBF0FBECDBFCD
:1007D00014BE0FB6F894A89581B5886181BD11BC8F
:1007E0000FBE0E94A6010E94BD010E940C0180E084
:1007F00090E020E2FC01E15EFE4F11821082228334
:100800001382049680329105A9F7CE0142960E9488
:10081000BE026BEF70E080E00E947A0167E071E059
:1008200081E00E947A010E9434022FE73AE186E0DB
:10083000215030408040E1F700C000009FE088E197
:100840000FB6F894A89581BD0FBE91BD712CF12C07
:10085000A12CB12CE12C00ED17E0DE0111966D0109
:1008600030E1232E2A0E40E2342E5AE0452E512C40
:10087000A8950E94D80180FF05C091E09E0D977059
:10088000E92EA12C83FF06C09A89911103C0F110B3
:100890000FC005C0FF20B9F09A89911114C081FFE3
:1008A00009C0073DBEE21B072CF4065F1F4F02C0C4
:1008B000F12C09C082FF05C00A30110514F00A505E
:1008C0001109FF24F39484FF0DC098010233110530
:1008D00014F02253310948E06FE171E0CE014296F5
:1008E0000E94F802B394E9E0EB1548F5612C712CF5
:1008F000C301880F991F880F991F9C01215E3E4FED
:100900004901862D0E945702D4016D937D938D93EA
:100910009C931397BFEF6B1A7B0AE8E06E16710485
:1009200039F7980148E06FE171E0CE0142960E94EC
:10093000C6028A8977247394B12C811102C0F11008
:100940000CC0A394F7E2FA1538F481E08E0D87709D
:10095000E82EF12CA12C01C0F12CBE016E5E7F4F60
:10096000872D0E942A030E94B20124E0E29EA0018A
:100970001124415E5E4F6E2DC6010E943403B60104
:1009800080E00E947A01F60130E231932E12FCCF12
:10099000198A8A89882339F184E5898392E59A83C3
:1009A00099E49B8320E52C833D8293E49E8398E425
:1009B0009F839B899F5C988739864C895D894130EC
:1009C000510539F48A8785E48B878DE48C872D87E0
:1009D00090C096E49A8791E49B8795E59C879CE478
:1009E0009D878E8786C0FF2081F085E4898384E41B
:1009F0008A8389E48B8384E58C8383E58E8380E519
:100A00008F838AE3888728E00EC083E5898390E599
:100A10009A839AE39B838C8781E48D8786E48E8713
:100A200085E48F8723E0C801B2010E948705FB019E
:100A300030E04601820E931E683E83E0780758F04E
:100A4000CB0168EE73E00E948705CB01B2010E94E2
:100A50008705805D01C080E2D4018C934901BFEF1E
:100A60008B1A9B0A8C0C9D1CE436F10558F0CF01C3
:100A700064E670E00E948705CB01B2010E94870501
:100A8000805D01C080E2D4018C934901B2E08B0EFD
:100A9000911C8C0C9D1CEA30F10550F0CF01B20185
:100AA0000E948705CB01B2010E948705805D01C0CD
:100AB00080E2D4018C9384E0882E912C8C0E9D1EB4
:100AC000820E931ECF01B2010E948705805DF40162
:100AD0008083E5E0F0E0EC0FFD1FE20FF31F8FEDE8
:100AE0008083E6E0F0E0EC0FFD1FE20FF31F83E4EC
:100AF0008083B60181E00E947A01FFE728E331E0BC
:100B0000F15020403040E1F700C00000B1CEAA1BF8
:100B1000BB1B51E107C0AA1FBB1FA617B70710F0E8
:100B2000A61BB70B881F991F5A95A9F7809590951A
:100B3000BC01CD010895A29FB001B39FC001A39F46
:100B4000700D811D1124911DB29F700D811D112406
:080B5000911D0895F894FFCFF8
:100B5800320031003000063200310030000532002A
:100B6800310030000432003100300003320031001F
:100B780030000238003700360003380037003600EE
:100B880000380037003600013800370036000238D8
:100B980000370036000435003400330000350034D7
:100BA80000330001350034003300063500340033CB
:100BB80000073B003A003900013B003A00390000C9
:100BC8003B003A0001020408107C0075006E0067C3
:100BD8000060004F50454E200053504920200046E9
:100BE80041554C540052414E474500384348204D2A
:100BF80041583636373500496E697469616C697ACF
:080C0800696E672E2E2E00001C
:00000001FF
