:100000000C942A000C9447000C9447000C94470071
:100010000C9447000C9447000C9447000C94470044
:100020000C9447000C9447000C9447000C94470034
:100030000C9447000C9447000C9447000C94470024
:100040000C9447000C9447000C9447000C94470014
:100050000C94470011241FBECFE5D8E0DEBFCDBF12
:1000600011E0A0E6B0E0E0EDF6E002C005900D92F0
:10007000AC31B107D9F721E0ACE1B1E001C01D928C
:10008000AD31B207E1F70E9456020C9466030C945E
:100090000000DC011296ED91FC911397408121E064
:1000A00030E0C90116960C9002C0880F991F0A947F
:1000B000E2F7842B80830895DC01ED91FC91119788
:1000C00016963C91208181E090E001C0880F3A951E
:1000D000EAF7662311F0822B02C080958223808389
:1000E0000895DC011296ED91FC9113978081682BA5
:1000F00060830895DC01ED91FC918081962F9095AD
:1001000089234623482B408308959C0187B3806B45
:1001100087BBBE98C9018D7F019711F091E501C0A1
:1001200095E5225031092230310508F498609DB9D7
:100130001EB808956115710511F480E008958FB916
:100140008FEF9FEF779904C00097B9F30197FACF2B
:100150008FB1FB01808381E00895482F60EF8CE729
:1001600090E00E947A0061E08EE690E00E945C00E0
:100170008DE08A95F1F7000060E08EE690E00E9445
:100180005C0087EC90E00197F1F700C00000089553
:10019000CF93C82F60E085E790E00E945C008C2F31
:1001A0000E94AD008C2F8295807F0E94AD00C150CF
:1001B000C23030F48FE99FE00197F1F700C00000F2
:1001C000CF91089581E00C94C80085E790E00E94EB
:1001D00049008EE690E00E94490060EF8CE790E0D5
:1001E0000E94710060E085E790E00E945C0060E0A2
:1001F0008EE690E00E945C0040E060EF8CE790E0CB
:100200000E947A002FE788E391E0215080409040DF
:10021000E1F700C0000080E30E94AD008FE097E2AC
:100220000197F1F700C0000080E30E94AD008FE865
:1002300091E00197F1F700C0000080E30E94AD005B
:100240008FE891E00197F1F700C0000080E20E9482
:10025000AD008FE891E00197F1F700C0000088E25F
:100260000E94C80088E00E94C8000E94E20086E068
:100270000E94C8008CE00C94C8008111605C862F3D
:1002800080680C94C800CF93C82F61E085E790E0A8
:100290000E945C008C2F0E94AD008C2F8295807F85
:1002A000CF910C94AD00FF920F931F93CF93DF93E8
:1002B0001F92CDB7DEB7F62E60E079830E943D0134
:1002C0000F2D7981172FF12CF80181918F0188234F
:1002D00039F0F0E1FF1621F00E944301F394F4CFCE
:1002E0008FE08F1528F080E20E944301F394F8CF4D
:1002F0000F90DF91CF911F910F91FF90089560E0D3
:1003000080E690E00E945C0080E690E00E94490058
:1003100010921C010895CF93C82F682F80E690E0BB
:100320000E945C00C0931C01CF91089580911C0134
:100330000895982F6115710581F0FB018381882351
:1003400069F02081318181E0911104C0283E334061
:100350002CF403C0273B33400CF480E00895CF9386
:10036000DF93FC01DB01892B09F47CC0109729F095
:1003700013968C911397811109C0A7EDB0E081E12C
:100380008A0F9D9191938A13FCCF6CC084E5808382
:1003900085E681838DE6828380E783838AE3848395
:1003A00080E285838D919C91119797FF08C08DE223
:1003B00086838D919C9191958195910904C08BE2E2
:1003C00086838D919C91CAE0D0E0BE010E944303D8
:1003D0009B01482F683E83E0780760F0CB0168EE10
:1003E00073E00E944303CB01BE010E94430390E3EC
:1003F000980F01C090E297832436310568F0C90157
:1004000064E670E00E944303CB016AE070E00E9462
:10041000430390E3980F01C090E290872A303105A2
:1004200068F0CAE0D0E0C901BE010E944303CB01DD
:10043000BE010E94430390E3980F01C090E29187B0
:10044000C9016AE070E00E944303805D82878EE20A
:100450008387405D44878FED858783E4868780E2CC
:100460008787108ADF91CF91089585FD0DC084FDA7
:100470000EC080FD0FC081FD10C082FD11C083FD44
:1004800012C08CEC90E0089580E890E008958CE82C
:1004900090E0089587E990E0089583EA90E0089558
:1004A00082EB90E008958FEB90E00895CF93DF9377
:1004B000CDB7DEB765970FB6F894DEBF0FBECDBFE0
:1004C00014BE0FB6F894A89581B5886181BD11BCA2
:1004D0000FBE0E947F010E94E50068EE70E080E0A0
:1004E0000E9453010E944003BC0181E00E9453011D
:1004F0000E94D802182F2FE78AE196E02150804011
:100500009040E1F700C000009FE088E10FB6F8944A
:10051000A89581BD0FBE91BD00E2FF24F394A8957C
:10052000112359F00E94E7026A8B7B8B8C8B9D8B89
:100530001C89129511701F2507C01B8A1A8A0C8B03
:100540001D8A0E94D802182F0E949601BE016E5E7D
:100550007F4F0E9499010E948B01BE016E5E7F4F0A
:10056000CE0101960E94AF01BE016F5F7F4F80E018
:100570000E9453018D89811105C08C890E9435022A
:10058000BC0109C00E949601882319F067EF70E052
:1005900002C068E071E081E00E9453012FEF84E324
:1005A0009CE0215080409040E1F700C00000B7CFB0
:1005B00061E087E690E00E945C0087E690E00E94A0
:1005C000490081E090E00E94850081E008950F934A
:1005D0001F93CF93DF9300D0CDB7DEB760E087E6FF
:1005E00090E00E945C00BE016E5F7F4F80E00E9441
:1005F0009A00882349F0BE016F5F7F4F80E00E9420
:100600009A00082F10E002C000E010E061E087E6E9
:1006100090E00E945C00012B39F18A8190E0982FD4
:1006200088272981822B9C01287F3F7743E03695DC
:1006300027954A95E1F7AC0156954795569547950C
:10064000AAE0B0E00E945703DC01CB0172E0B6954E
:10065000A795979587957A95D1F7282F792F842F8D
:10066000817091E0982704C020E070E080E190E084
:10067000622F0F900F90DF91CF911F910F910895EE
:1006800084E191E00895AA1BBB1B51E107C0AA1F9A
:10069000BB1FA617B70710F0A61BB70B881F991F23
:1006A0005A95A9F780959095BC01CD010895A29F18
:1006B000B001B39FC001A39F700D811D1124911D36
:1006C000B29F700D811D1124911D0895F894FFCFE4
:1006D00038003700360003380037003600043B008E
:1006E0003A003900013B003A003900003B003A0073
:1006F0004641554C543A20494E4954004641554CC8
:10070000543A20535049004641554C543A204F50DA
:10071000454E004641554C543A20564F4C544147A3
:1007200045004641554C543A2052414E47450046FB
:1007300041554C543A204C494D49540053656E7311
:100740006F723A204F4B0054656D703A20494E56F7
:10075000414C494420202000546865726D6F636FDE
:1007600075706C65204B004F55545055543A204FCE
:100770004E203E3D313030004F55545055543A20B4
:0C0780004F4646004D41583636373500D4
:00000001FF
