:100000000C942A000C9447000C9447000C94470071
:100010000C9447000C9447000C9447000C94470044
:100020000C9447000C9447000C9447000C94470034
:100030000C9447000C9447000C9447000C94470024
:100040000C9447000C9447000C9447000C94470014
:100050000C94470011241FBECFE5D8E0DEBFCDBF12
:1000600011E0A0E6B0E0E8EDF8E002C005900D92E6
:10007000AE31B107D9F721E0AEE1B1E001C01D9288
:10008000AF31B207E1F70E9456020C946A040C9457
:100090000000DC011296ED91FC911397408121E064
:1000A00030E0C90116960C9002C0880F991F0A947F
:1000B000E2F7842B80830895DC01ED91FC91119788
:1000C00016963C91208181E090E001C0880F3A951E
:1000D000EAF7662311F0822B02C080958223808389
:1000E0000895DC011296ED91FC9113978081682BA5
:1000F00060830895DC01ED91FC918081962F9095AD
:1001000089234623482B408308959C0187B3806B45
:1001100087BBBE98C9018D7F019711F091E501C0A1
:1001200095E5225031092230310508F498609DB9D7
:100130001EB808956115710511F480E008958FB916
:100140008FEF9FEF779904C00097B9F30197FACF2B
:100150008FB1FB01808381E00895482F60EF8CE729
:1001600090E00E947A0061E08EE690E00E945C00E0
:100170008DE08A95F1F7000060E08EE690E00E9445
:100180005C0087EC90E00197F1F700C00000089553
:10019000CF93C82F60E085E790E00E945C008C2F31
:1001A0000E94AD008C2F8295807F0E94AD00C150CF
:1001B000C23030F48FE99FE00197F1F700C00000F2
:1001C000CF91089581E00C94C80085E790E00E94EB
:1001D00049008EE690E00E94490060EF8CE790E0D5
:1001E0000E94710060E085E790E00E945C0060E0A2
:1001F0008EE690E00E945C0040E060EF8CE790E0CB
:100200000E947A002FE788E391E0215080409040DF
:10021000E1F700C0000080E30E94AD008FE097E2AC
:100220000197F1F700C0000080E30E94AD008FE865
:1002300091E00197F1F700C0000080E30E94AD005B
:100240008FE891E00197F1F700C0000080E20E9482
:10025000AD008FE891E00197F1F700C0000088E25F
:100260000E94C80088E00E94C8000E94E20086E068
:100270000E94C8008CE00C94C8008111605C862F3D
:1002800080680C94C800CF93C82F61E085E790E0A8
:100290000E945C008C2F0E94AD008C2F8295807F85
:1002A000CF910C94AD00FF920F931F93CF93DF93E8
:1002B0001F92CDB7DEB7F62E60E079830E943D0134
:1002C0000F2D7981172FF12CF80181918F0188234F
:1002D00039F0F0E1FF1621F00E944301F394F4CFCE
:1002E0008FE08F1528F080E20E944301F394F8CF4D
:1002F0000F90DF91CF911F910F91FF90089560E0D3
:1003000080E690E00E945C0080E690E00E94490058
:1003100010921E010895CF93C82F682F80E690E0B9
:100320000E945C00C0931E01CF91089580911E0130
:100330000895982F6115710581F0FB018381882351
:1003400069F02081318181E0911104C0283E334061
:100350002CF403C0273B33400CF480E00895CF9386
:10036000DF93FC01DB01892B09F47CC0109729F095
:1003700013968C911397811109C0A7EDB0E081E12C
:100380008A0F9D9191938A13FCCF6CC084E5808382
:1003900085E681838DE6828380E783838AE3848395
:1003A00080E285838D919C91119797FF08C08DE223
:1003B00086838D919C9191958195910904C08BE2E2
:1003C00086838D919C91CAE0D0E0BE010E94FB0320
:1003D0009B01482F683E83E0780760F0CB0168EE10
:1003E00073E00E94FB03CB01BE010E94FB0390E37C
:1003F000980F01C090E297832436310568F0C90157
:1004000064E670E00E94FB03CB016AE070E00E94AA
:10041000FB0390E3980F01C090E290872A303105EA
:1004200068F0CAE0D0E0C901BE010E94FB03CB0125
:10043000BE010E94FB0390E3980F01C090E29187F8
:10044000C9016AE070E00E94FB03805D82878EE252
:100450008387405D44878FED858783E4868780E2CC
:100460008787108ADF91CF91089585FD0DC084FDA7
:100470000EC080FD0FC081FD10C082FD11C083FD44
:1004800012C08CEC90E0089580E890E008958CE82C
:1004900090E0089587E990E0089583EA90E0089558
:1004A00082EB90E008958FEB90E00895CF93DF9377
:1004B000CDB7DEB765970FB6F894DEBF0FBECDBFE0
:1004C00014BE0FB6F894A89581B5886181BD11BCA2
:1004D0000FBE0E947F010E94E50068EE70E080E0A0
:1004E0000E9453010E94F803BC0181E00E94530165
:1004F0000E943303182F2FE78AE196E021508040B5
:100500009040E1F700C000009FE088E10FB6F8944A
:10051000A89581BD0FBE91BD00E2FF24F394A8957C
:10052000112359F00E9482036A8B7B8B8C8B9D8BED
:100530001C89129511701F2507C01B8A1A8A0C8B03
:100540001D8A0E943303182F0E949601BE016E5E21
:100550007F4F0E9499010E948B01BE016E5E7F4F0A
:10056000CE0101960E94AF01BE016F5F7F4F80E018
:100570000E9453018D89811105C08C890E9435022A
:10058000BC0109C00E949601882319F067EF70E052
:1005900002C068E071E081E00E9453012FEF84E324
:1005A0009CE0215080409040E1F700C00000B7CFB0
:1005B0000F931F93CF93DF931F92CDB7DEB7082F12
:1005C000162F60E087E690E00E945C00BE016F5F3E
:1005D0007F4F802F80680E949A00882341F0BE01DF
:1005E0006F5F7F4F812F0E949A00082F02C000E0AA
:1005F00010E061E087E690E00E945C00802F81704F
:100600000F90DF91CF911F910F910895FF920F935B
:100610001F93CF93DF931F92CDB7DEB7F82E8B01D8
:1006200060E087E690E00E945C00BE016F5F7F4F54
:100630008F2D0E949A00882331F0B80180E00E943B
:100640009A00082F02C000E010E061E087E690E029
:100650000E945C00802F81700F90DF91CF911F91DD
:100660000F91FF900895CF93DF9300D0CDB7DEB701
:1006700061E087E690E00E945C0087E690E00E94DF
:10068000490081E090E00E94850061E180E00E94E5
:10069000D802882389F163E081E00E94D802882390
:1006A00059F1BE016E5F7F4F80E00E9406038823F0
:1006B00019F1BE016F5F7F4F81E00E94060388231E
:1006C000D9F08A81817B8131B9F489818F7083303F
:1006D00099F461E980E00E94D802882369F0BE01A4
:1006E0006E5F7F4F80E00E940603882329F09A8185
:1006F000917B81E0913909F080E00F900F90DF91BC
:10070000CF910895EF92FF920F931F93CF93DF93B2
:1007100000D000D01F92CDB7DEB760E087E690E052
:100720000E945C00BE016B5F7F4F8CE00E949A00CC
:10073000F82E8E010F5F1F4F24E0E22EE00EFF2007
:1007400051F0E01641F0B80180E00E949A00F82EC6
:100750000F5F1F4FF4CF61E087E690E00E945C00DE
:10076000F11004C060E070E080E135C089812A8129
:10077000422F50E060E070E0762F652F542F442721
:10078000682B8B818A019B01082BD901C801A7FD29
:10079000BF6F9C01AD0185E055954795379527952D
:1007A0008A95D1F7AAE0B0E00E942E0420E830E05C
:1007B00040E050E00E940F049C81892F817091FDE0
:1007C0008260492F407C09F084609C7309F0886046
:1007D000B90191E0811190E00F900F900F900F9070
:1007E0000F90DF91CF911F910F91FF90EF9008959F
:1007F00084E191E00895AA1BBB1B51E107C0AA1F29
:10080000BB1FA617B70710F0A61BB70B881F991FB1
:100810005A95A9F780959095BC01CD010895052EB4
:1008200097FB1EF400940E94260457FD07D00E94F7
:10083000390407FC03D04EF40C94260450954095DF
:10084000309521953F4F4F4F5F4F0895909580957C
:10085000709561957F4F8F4F9F4F08950E945B0465
:10086000A59F900DB49F900DA49F800D911D112404
:100870000895A1E21A2EAA1BBB1BFD010DC0AA1FE1
:10088000BB1FEE1FFF1FA217B307E407F50720F0F9
:10089000A21BB30BE40BF50B661F771F881F991F74
:1008A0001A9469F760957095809590959B01AC01BD
:1008B000BD01CF010895A29FB001B39FC001A39FC6
:1008C000700D811D1124911DB29F700D811D112489
:0808D000911D0895F894FFCF7B
:1008D80038003700360003380037003600043B0084
:1008E8003A003900013B003A003900003B003A0069
:1008F8004641554C543A20494E4954004641554CBE
:10090800543A20535049004641554C543A204F50D0
:10091800454E004641554C543A20564F4C54414799
:1009280045004641554C543A2052414E47450046F1
:1009380041554C543A204C494D49540053656E7307
:100948006F723A204F4B0054656D703A20494E56ED
:10095800414C494420202000546865726D6F636FD4
:1009680075706C65204B004F55545055543A204FC4
:100978004E203E3D313030004F55545055543A20AA
:0E0988004F4646004D41583331383536000099
:00000001FF
