:100000000C942A000C9447000C9447000C94470071
:100010000C9447000C9447000C9447000C94470044
:100020000C9447000C9447000C9447000C94470034
:100030000C9447000C9447000C9447000C94470024
:100040000C9447000C9447000C9447000C94470014
:100050000C94470011241FBECFE5D8E0DEBFCDBF12
:1000600010E0A0E6B0E0E6EDF5E002C005900D92EC
:10007000AC3CB107D9F720E0ACECB0E001C01D9278
:10008000AD3CB207E1F70E948B010C94E9020C949D
:100090000000DC011296ED91FC911397408121E064
:1000A00030E0C90116960C9002C0880F991F0A947F
:1000B000E2F7842B80830895DC01ED91FC91119788
:1000C00016963C91208181E090E001C0880F3A951E
:1000D000EAF7662311F0822B02C080958223808389
:1000E0000895DC011296ED91FC9113978081682BA5
:1000F00060830895DC01ED91FC918081962F9095AD
:1001000089234623482B408308959C0187B3806B45
:1001100087BBBE98C9018D7F019711F091E501C0A1
:1001200095E5225031092230310508F498609DB9D7
:100130001EB808958FB9779BFECF8FB10895482FD1
:1001400060EF8CE790E00E947A0061E08EE690E03C
:100150000E945C008DE08A95F1F7000060E08EE679
:1001600090E00E945C0087EC90E00197F1F700C0FE
:1001700000000895CF93C82F60E085E790E00E94CB
:100180005C008C2F0E949F008C2F8295807F0E94A4
:100190009F00C150C23030F48FE99FE00197F1F722
:1001A00000C00000CF91089581E00C94BA0085E76B
:1001B00090E00E9449008EE690E00E94490060EFC6
:1001C0008CE790E00E94710060E085E790E00E947B
:1001D0005C0060E08EE690E00E945C0040E060EF32
:1001E0008CE790E00E947A002FE788E391E02150AD
:1001F00080409040E1F700C0000080E30E949F0033
:100200008FE097E20197F1F700C0000080E30E94C1
:100210009F008FE891E00197F1F700C0000080E3B4
:100220000E949F008FE891E00197F1F700C0000065
:1002300080E20E949F008FE891E00197F1F700C0F3
:10024000000088E20E94BA0088E00E94BA000E9482
:10025000D40086E00E94BA008CE00C94BA008111B0
:10026000605C862F80680C94BA00CF93C82F61E041
:1002700085E790E00E945C008C2F0E949F008C2FED
:100280008295807FCF910C949F00FF920F931F93D4
:10029000CF93DF931F92CDB7DEB7F62E60E0798360
:1002A0000E942F010F2D7981172FF12CF8018191D8
:1002B0008F01882339F0F0E1FF1621F00E9435010B
:1002C000F394F4CF8FE08F1528F080E20E9435017F
:1002D000F394F8CF0F90DF91CF911F910F91FF9082
:1002E000089560E080E690E00E945C0080E690E087
:1002F0000E9449001092CC000895CF93C82F682F18
:1003000080E690E00E945C00C093CC00CF910895FD
:100310008091CC000895CF93DF93CDB7DEB7669779
:100320000FB6F894DEBF0FBECDBF0E9471010E94D0
:10033000D70060E870E080E00E9445010E94C3029F
:10034000BC0181E00E9445010E945C022FE78AE126
:1003500096E0215080409040E1F700C0000084E525
:10036000782E95E6692E2DE6522E30E7432E4AE38D
:10037000342E50E2D52E6BE2262E7AE0E72EF12CB9
:10038000E8EEAE2EE3E0BE2EF4E68F2E912C0E9416
:1003900069022A8B3B8B4C8B5D8B6E8B0A891B8988
:1003A0000E948801CC88C1100DC0811106C081E077
:1003B000083E23E012073CF405C081E0073B93E0D0
:1003C00019070CF480E00E947D0179826A825B82C9
:1003D0004C823D82DE8217FF07C08DE28F83882723
:1003E0009927801B910B02C02F82C801B7010E9480
:1003F000C6029B01482F683E83E0780750F0CB018E
:10040000B5010E94C602CB01B7010E94C602805D01
:1004100001C080E288872436310558F0C901B40153
:100420000E94C602CB01B7010E94C60290E3980F5A
:1004300001C090E299872A30310558F0C901B7010F
:100440000E94C602CB01B7010E94C60290E3980F3A
:1004500001C090E29A87C901B7010E94C602805D7F
:100460008B878EE28C87405D4D878FED8E8783E48E
:100470008F87D88A198ABE016F5F7F4F80E00E9404
:100480004501CC2019F06D897E8909C00E94880140
:10049000882319F06FE870E002C060EA70E081E044
:1004A0000E9445019FEF24E38CE091502040804062
:1004B000E1F700C000006BCF61E087E690E00E94AA
:1004C0005C0087E690E00E94490081E090E00C9497
:1004D00085000F931F93CF93DF9300D000D01F921E
:1004E000CDB7DEB760E087E690E00E945C0080E078
:1004F0000E949A00082F80E00E949A00E02FF0E00E
:10050000FE2FEE278F01082B61E087E690E00E9426
:100510005C009801287F3F7743E0369527954A9500
:10052000E1F7F801F695E795F695E795AAE0B0E0D2
:100530000E94DA02DC01CB0162E0B695A79597959F
:1005400087956A95D1F74E2F4170E0FD03C028EBE7
:1005500030E002C02CEA30E09A8389833D832C830B
:10056000682F3A81522F8D81262F682F70E080E00E
:1005700090E00F900F900F900F900F90DF91CF9120
:100580001F910F91089583EC90E00895AA1BBB1B67
:1005900051E107C0AA1FBB1FA617B70710F0A61B83
:1005A000B70B881F991F5A95A9F780959095BC01A4
:1005B000CD010895A29FB001B39FC001A39F700D0C
:1005C000811D1124911DB29F700D811D1124911D5B
:0605D0000895F894FFCF2E
:1005D60038003700360003380037003600043B0089
:1005E6003A003900013B003A003900003B003A006E
:1005F600546865726D6F636F75706C65204B004F44
:1006060055545055543A204F4E203E3D313030001F
:100616004F55545055543A204F4646004641554C86
:10062600543A204F50454E0053656E736F723A2010
:0C0636004F4B004D415836363735000060
:00000001FF
